{
  "contractName": "BlockchainPendidikan",
  "abi": [
    {
      "inputs": [],
      "stateMutability": "nonpayable",
      "type": "constructor"
    },
    {
      "anonymous": false,
      "inputs": [
        {
          "indexed": false,
          "internalType": "uint256",
          "name": "id",
          "type": "uint256"
        },
        {
          "indexed": false,
          "internalType": "address",
          "name": "penerima",
          "type": "address"
        },
        {
          "indexed": false,
          "internalType": "string",
          "name": "nama",
          "type": "string"
        },
        {
          "indexed": false,
          "internalType": "string",
          "name": "kursus",
          "type": "string"
        }
      ],
      "name": "SertifikatDiterbitkan",
      "type": "event"
    },
    {
      "inputs": [],
      "name": "admin",
      "outputs": [
        {
          "internalType": "address",
          "name": "",
          "type": "address"
        }
      ],
      "stateMutability": "view",
      "type": "function",
      "constant": true
    },
    {
      "inputs": [
        {
          "internalType": "uint256",
          "name": "",
          "type": "uint256"
        }
      ],
      "name": "daftarSertifikat",
      "outputs": [
        {
          "internalType": "uint256",
          "name": "id",
          "type": "uint256"
        },
        {
          "internalType": "address",
          "name": "penerima",
          "type": "address"
        },
        {
          "internalType": "string",
          "name": "nama",
          "type": "string"
        },
        {
          "internalType": "string",
          "name": "kursus",
          "type": "string"
        }
      ],
      "stateMutability": "view",
      "type": "function",
      "constant": true
    },
    {
      "inputs": [],
      "name": "jumlahSertifikat",
      "outputs": [
        {
          "internalType": "uint256",
          "name": "",
          "type": "uint256"
        }
      ],
      "stateMutability": "view",
      "type": "function",
      "constant": true
    },
    {
      "inputs": [
        {
          "internalType": "address",
          "name": "penerima",
          "type": "address"
        },
        {
          "internalType": "string",
          "name": "nama",
          "type": "string"
        },
        {
          "internalType": "string",
          "name": "kursus",
          "type": "string"
        }
      ],
      "name": "terbitkanSertifikat",
      "outputs": [],
      "stateMutability": "nonpayable",
      "type": "function"
    }
  ],
  "bytecode": "0x608060405234801561001057600080fd5b50336000806101000a81548173ffffffffffffffffffffffffffffffffffffffff021916908373ffffffffffffffffffffffffffffffffffffffff160217905550610c49806100606000396000f3fe608060405234801561001057600080fd5b506004361061004c5760003560e01c80639775065c14610051578063eb3603b51461006d578063f55f6ba91461008b578063f851a440146100be575b600080fd5b61006b600480360381019061006691906105e4565b6100dc565b005b6100756102a2565b6040516100829190610688565b60405180910390f35b6100a560048036038101906100a091906106cf565b6102a8565b6040516100b5949392919061078a565b60405180910390f35b6100c6610408565b6040516100d391906107dd565b60405180910390f35b60008054906101000a900473ffffffffffffffffffffffffffffffffffffffff1673ffffffffffffffffffffffffffffffffffffffff163373ffffffffffffffffffffffffffffffffffffffff161461016a576040517f08c379a00000000000000000000000000000000000000000000000000000000081526004016101619061086a565b60405180910390fd5b6000600160025461017b91906108b9565b905060405180608001604052808281526020018573ffffffffffffffffffffffffffffffffffffffff16815260200184815260200183815250600160008381526020019081526020016000206000820151816000015560208201518160010160006101000a81548173ffffffffffffffffffffffffffffffffffffffff021916908373ffffffffffffffffffffffffffffffffffffffff160217905550604082015181600201908161022d9190610af9565b5060608201518160030190816102439190610af9565b509050506002600081548092919061025a90610bcb565b91905055507f1f24ef6688cab39e6ca4c3dec44ab1eaea30206b9af0197eb953376d93f53b3381858585604051610294949392919061078a565b60405180910390a150505050565b60025481565b60016020528060005260406000206000915090508060000154908060010160009054906101000a900473ffffffffffffffffffffffffffffffffffffffff16908060020180546102f79061091c565b80601f01602080910402602001604051908101604052809291908181526020018280546103239061091c565b80156103705780601f1061034557610100808354040283529160200191610370565b820191906000526020600020905b81548152906001019060200180831161035357829003601f168201915b5050505050908060030180546103859061091c565b80601f01602080910402602001604051908101604052809291908181526020018280546103b19061091c565b80156103fe5780601f106103d3576101008083540402835291602001916103fe565b820191906000526020600020905b8154815290600101906020018083116103e157829003601f168201915b5050505050905084565b60008054906101000a900473ffffffffffffffffffffffffffffffffffffffff1681565b6000604051905090565b600080fd5b600080fd5b600073ffffffffffffffffffffffffffffffffffffffff82169050919050565b600061046b82610440565b9050919050565b61047b81610460565b811461048657600080fd5b50565b60008135905061049881610472565b92915050565b600080fd5b600080fd5b6000601f19601f8301169050919050565b7f4e487b7100000000000000000000000000000000000000000000000000000000600052604160045260246000fd5b6104f1826104a8565b810181811067ffffffffffffffff821117156105105761050f6104b9565b5b80604052505050565b600061052361042c565b905061052f82826104e8565b919050565b600067ffffffffffffffff82111561054f5761054e6104b9565b5b610558826104a8565b9050602081019050919050565b82818337600083830152505050565b600061058761058284610534565b610519565b9050828152602081018484840111156105a3576105a26104a3565b5b6105ae848285610565565b509392505050565b600082601f8301126105cb576105ca61049e565b5b81356105db848260208601610574565b91505092915050565b6000806000606084860312156105fd576105fc610436565b5b600061060b86828701610489565b935050602084013567ffffffffffffffff81111561062c5761062b61043b565b5b610638868287016105b6565b925050604084013567ffffffffffffffff8111156106595761065861043b565b5b610665868287016105b6565b9150509250925092565b6000819050919050565b6106828161066f565b82525050565b600060208201905061069d6000830184610679565b92915050565b6106ac8161066f565b81146106b757600080fd5b50565b6000813590506106c9816106a3565b92915050565b6000602082840312156106e5576106e4610436565b5b60006106f3848285016106ba565b91505092915050565b61070581610460565b82525050565b600081519050919050565b600082825260208201905092915050565b60005b8381101561074557808201518184015260208101905061072a565b60008484015250505050565b600061075c8261070b565b6107668185610716565b9350610776818560208601610727565b61077f816104a8565b840191505092915050565b600060808201905061079f6000830187610679565b6107ac60208301866106fc565b81810360408301526107be8185610751565b905081810360608301526107d28184610751565b905095945050505050565b60006020820190506107f260008301846106fc565b92915050565b7f48616e79612061646d696e2079616e67206461706174206d656e6a616c616e6b60008201527f616e2066756e67736920696e6900000000000000000000000000000000000000602082015250565b6000610854602d83610716565b915061085f826107f8565b604082019050919050565b6000602082019050818103600083015261088381610847565b9050919050565b7f4e487b7100000000000000000000000000000000000000000000000000000000600052601160045260246000fd5b60006108c48261066f565b91506108cf8361066f565b92508282019050808211156108e7576108e661088a565b5b92915050565b7f4e487b7100000000000000000000000000000000000000000000000000000000600052602260045260246000fd5b6000600282049050600182168061093457607f821691505b602082108103610947576109466108ed565b5b50919050565b60008190508160005260206000209050919050565b60006020601f8301049050919050565b600082821b905092915050565b6000600883026109af7fffffffffffffffffffffffffffffffffffffffffffffffffffffffffffffffff82610972565b6109b98683610972565b95508019841693508086168417925050509392505050565b6000819050919050565b60006109f66109f16109ec8461066f565b6109d1565b61066f565b9050919050565b6000819050919050565b610a10836109db565b610a24610a1c826109fd565b84845461097f565b825550505050565b600090565b610a39610a2c565b610a44818484610a07565b505050565b5b81811015610a6857610a5d600082610a31565b600181019050610a4a565b5050565b601f821115610aad57610a7e8161094d565b610a8784610962565b81016020851015610a96578190505b610aaa610aa285610962565b830182610a49565b50505b505050565b600082821c905092915050565b6000610ad060001984600802610ab2565b1980831691505092915050565b6000610ae98383610abf565b9150826002028217905092915050565b610b028261070b565b67ffffffffffffffff811115610b1b57610b1a6104b9565b5b610b25825461091c565b610b30828285610a6c565b600060209050601f831160018114610b635760008415610b51578287015190505b610b5b8582610add565b865550610bc3565b601f198416610b718661094d565b60005b82811015610b9957848901518255600182019150602085019450602081019050610b74565b86831015610bb65784890151610bb2601f891682610abf565b8355505b6001600288020188555050505b505050505050565b6000610bd68261066f565b91507fffffffffffffffffffffffffffffffffffffffffffffffffffffffffffffffff8203610c0857610c0761088a565b5b60018201905091905056fea26469706673582212209e639fa4caa0464a8b3f52be343a377ee185d98d3af65084d40da9c177c63c5164736f6c63430008130033",
  "immutableReferences": {},
  "source": "// SPDX-License-Identifier: MIT\npragma solidity >=0.4.22 <0.9.0;\n\ncontract BlockchainPendidikan {\n  address public admin;\n\n    struct Sertifikat {\n        uint id;\n        address penerima;\n        string nama;\n        string kursus;\n    }\n\n    mapping(uint => Sertifikat) public daftarSertifikat;\n\n    uint public jumlahSertifikat;\n\n    event SertifikatDiterbitkan(uint id, address penerima, string nama, string kursus);\n\n    modifier hanyaAdmin() {\n        require(msg.sender == admin, \"Hanya admin yang dapat menjalankan fungsi ini\");\n        _;\n    }\n\n    constructor() {\n        admin = msg.sender;\n    }\n\n    function terbitkanSertifikat(address penerima, string memory nama, string memory kursus) public hanyaAdmin {\n        uint id = jumlahSertifikat + 1;\n        daftarSertifikat[id] = Sertifikat(id, penerima, nama, kursus);\n        jumlahSertifikat++;\n        emit SertifikatDiterbitkan(id, penerima, nama, kursus);\n    }\n}\n",
  "sourcePath": "D:\\Kuliah\\Semester 5\\BlockChain\\blockchain_pendidikan\\contracts\\BlockchainPendidikan.sol",
  "compiler": {
    "name": "solc",
    "version": "0.8.19+commit.7dd6d404.Emscripten.clang"
  },
  "schemaVersion": "3.4.16",
  "updatedAt": "2024-01-15T06:57:50.116Z",
  "networkType": "ethereum",
  "devdoc": {
    "kind": "dev",
    "methods": {},
    "version": 1
  },
  "userdoc": {
    "kind": "user",
    "methods": {},
    "version": 1
  }
}